{
  "contractName": "MembershipToken",
  "abi": [
    {
      "inputs": [
        {
          "internalType": "string",
          "name": "_name",
          "type": "string"
        }
      ],
      "stateMutability": "nonpayable",
      "type": "constructor"
    },
    {
      "anonymous": false,
      "inputs": [
        {
          "indexed": false,
          "internalType": "address",
          "name": "_member",
          "type": "address"
        }
      ],
      "name": "Burn",
      "type": "event"
    },
    {
      "anonymous": false,
      "inputs": [
        {
          "indexed": false,
          "internalType": "address",
          "name": "_member",
          "type": "address"
        }
      ],
      "name": "Mint",
      "type": "event"
    },
    {
      "anonymous": false,
      "inputs": [
        {
          "indexed": false,
          "internalType": "address",
          "name": "_member",
          "type": "address"
        }
      ],
      "name": "Update",
      "type": "event"
    },
    {
      "inputs": [],
      "name": "name",
      "outputs": [
        {
          "internalType": "string",
          "name": "",
          "type": "string"
        }
      ],
      "stateMutability": "view",
      "type": "function",
      "constant": true
    },
    {
      "inputs": [],
      "name": "operator",
      "outputs": [
        {
          "internalType": "address",
          "name": "",
          "type": "address"
        }
      ],
      "stateMutability": "view",
      "type": "function",
      "constant": true
    },
    {
      "inputs": [
        {
          "internalType": "address",
          "name": "_member",
          "type": "address"
        },
        {
          "internalType": "string",
          "name": "_identity",
          "type": "string"
        },
        {
          "internalType": "uint256",
          "name": "_timestamp",
          "type": "uint256"
        }
      ],
      "name": "mint",
      "outputs": [],
      "stateMutability": "nonpayable",
      "type": "function"
    },
    {
      "inputs": [
        {
          "internalType": "address",
          "name": "_member",
          "type": "address"
        }
      ],
      "name": "burn",
      "outputs": [],
      "stateMutability": "nonpayable",
      "type": "function"
    },
    {
      "inputs": [
        {
          "internalType": "address",
          "name": "_member",
          "type": "address"
        },
        {
          "components": [
            {
              "internalType": "string",
              "name": "identity",
              "type": "string"
            },
            {
              "internalType": "uint256",
              "name": "timestamp",
              "type": "uint256"
            }
          ],
          "internalType": "struct MembershipToken.MBT",
          "name": "_memberData",
          "type": "tuple"
        }
      ],
      "name": "update",
      "outputs": [],
      "stateMutability": "nonpayable",
      "type": "function"
    },
    {
      "inputs": [
        {
          "internalType": "address",
          "name": "_member",
          "type": "address"
        }
      ],
      "name": "isMember",
      "outputs": [
        {
          "internalType": "bool",
          "name": "",
          "type": "bool"
        }
      ],
      "stateMutability": "view",
      "type": "function",
      "constant": true
    },
    {
      "inputs": [
        {
          "internalType": "address",
          "name": "_member",
          "type": "address"
        }
      ],
      "name": "getMember",
      "outputs": [
        {
          "components": [
            {
              "internalType": "string",
              "name": "identity",
              "type": "string"
            },
            {
              "internalType": "uint256",
              "name": "timestamp",
              "type": "uint256"
            }
          ],
          "internalType": "struct MembershipToken.MBT",
          "name": "",
          "type": "tuple"
        }
      ],
      "stateMutability": "view",
      "type": "function",
      "constant": true
    }
  ],
  "bytecode": "0x60806040527fc5d2460186f7233c927e7db2dcc703c0e500b653ca82273b7bfad8045d85a47060001b6003553480156200003857600080fd5b50604051620016753803806200167583398181016040528101906200005e91906200030c565b806001908051906020019062000076929190620000bf565b5033600260006101000a81548173ffffffffffffffffffffffffffffffffffffffff021916908373ffffffffffffffffffffffffffffffffffffffff16021790555050620003c1565b828054620000cd906200038c565b90600052602060002090601f016020900481019282620000f157600085556200013d565b82601f106200010c57805160ff19168380011785556200013d565b828001600101855582156200013d579182015b828111156200013c5782518255916020019190600101906200011f565b5b5090506200014c919062000150565b5090565b5b808211156200016b57600081600090555060010162000151565b5090565b6000604051905090565b600080fd5b600080fd5b600080fd5b600080fd5b6000601f19601f8301169050919050565b7f4e487b7100000000000000000000000000000000000000000000000000000000600052604160045260246000fd5b620001d8826200018d565b810181811067ffffffffffffffff82111715620001fa57620001f96200019e565b5b80604052505050565b60006200020f6200016f565b90506200021d8282620001cd565b919050565b600067ffffffffffffffff82111562000240576200023f6200019e565b5b6200024b826200018d565b9050602081019050919050565b60005b83811015620002785780820151818401526020810190506200025b565b8381111562000288576000848401525b50505050565b6000620002a56200029f8462000222565b62000203565b905082815260208101848484011115620002c457620002c362000188565b5b620002d184828562000258565b509392505050565b600082601f830112620002f157620002f062000183565b5b8151620003038482602086016200028e565b91505092915050565b60006020828403121562000325576200032462000179565b5b600082015167ffffffffffffffff8111156200034657620003456200017e565b5b6200035484828501620002d9565b91505092915050565b7f4e487b7100000000000000000000000000000000000000000000000000000000600052602260045260246000fd5b60006002820490506001821680620003a557607f821691505b602082108103620003bb57620003ba6200035d565b5b50919050565b6112a480620003d16000396000f3fe608060405234801561001057600080fd5b506004361061007d5760003560e01c806389afcb441161005b57806389afcb44146100ee578063a230c5241461010a578063a8f022241461013a578063ba7aef43146101565761007d565b806306fdde03146100825780632ada2596146100a0578063570ca735146100d0575b600080fd5b61008a610172565b6040516100979190610a45565b60405180910390f35b6100ba60048036038101906100b59190610ad9565b610200565b6040516100c79190610ba6565b60405180910390f35b6100d86102f4565b6040516100e59190610bd7565b60405180910390f35b61010860048036038101906101039190610ad9565b61031a565b005b610124600480360381019061011f9190610ad9565b610473565b6040516101319190610c0d565b60405180910390f35b610154600480360381019061014f9190610dff565b6104e6565b005b610170600480360381019061016b9190610e5b565b6106b3565b005b6001805461017f90610ef9565b80601f01602080910402602001604051908101604052809291908181526020018280546101ab90610ef9565b80156101f85780601f106101cd576101008083540402835291602001916101f8565b820191906000526020600020905b8154815290600101906020018083116101db57829003601f168201915b505050505081565b6102086108af565b6000808373ffffffffffffffffffffffffffffffffffffffff1673ffffffffffffffffffffffffffffffffffffffff16815260200190815260200160002060405180604001604052908160008201805461026190610ef9565b80601f016020809104026020016040519081016040528092919081815260200182805461028d90610ef9565b80156102da5780601f106102af576101008083540402835291602001916102da565b820191906000526020600020905b8154815290600101906020018083116102bd57829003601f168201915b505050505081526020016001820154815250509050919050565b600260009054906101000a900473ffffffffffffffffffffffffffffffffffffffff1681565b8073ffffffffffffffffffffffffffffffffffffffff163373ffffffffffffffffffffffffffffffffffffffff1614806103a15750600260009054906101000a900473ffffffffffffffffffffffffffffffffffffffff1673ffffffffffffffffffffffffffffffffffffffff163373ffffffffffffffffffffffffffffffffffffffff16145b6103e0576040517f08c379a00000000000000000000000000000000000000000000000000000000081526004016103d790610f9c565b60405180910390fd5b6000808273ffffffffffffffffffffffffffffffffffffffff1673ffffffffffffffffffffffffffffffffffffffff1681526020019081526020016000206000808201600061042f91906108c9565b600182016000905550507fe22de1457cb61fb61b60176bc4235a9abd19466126b46692bc14fc573f099249816040516104689190610bd7565b60405180910390a150565b60006003546000808473ffffffffffffffffffffffffffffffffffffffff1673ffffffffffffffffffffffffffffffffffffffff1681526020019081526020016000206000016040516104c6919061105b565b6040518091039020036104dc57600090506104e1565b600190505b919050565b600260009054906101000a900473ffffffffffffffffffffffffffffffffffffffff1673ffffffffffffffffffffffffffffffffffffffff163373ffffffffffffffffffffffffffffffffffffffff1614610576576040517f08c379a000000000000000000000000000000000000000000000000000000000815260040161056d906110e4565b60405180910390fd5b6003546000808473ffffffffffffffffffffffffffffffffffffffff1673ffffffffffffffffffffffffffffffffffffffff1681526020019081526020016000206000016040516105c7919061105b565b60405180910390200361060f576040517f08c379a000000000000000000000000000000000000000000000000000000000815260040161060690611150565b60405180910390fd5b806000808473ffffffffffffffffffffffffffffffffffffffff1673ffffffffffffffffffffffffffffffffffffffff168152602001908152602001600020600082015181600001908051906020019061066a929190610909565b50602082015181600101559050507fd456720fd185d4060f5cea4d82775d2af95048c1e10f227ec35bae950a4be2a8826040516106a79190610bd7565b60405180910390a15050565b6003546000808573ffffffffffffffffffffffffffffffffffffffff1673ffffffffffffffffffffffffffffffffffffffff168152602001908152602001600020600001604051610704919061105b565b60405180910390201461074c576040517f08c379a0000000000000000000000000000000000000000000000000000000008152600401610743906111bc565b60405180910390fd5b600260009054906101000a900473ffffffffffffffffffffffffffffffffffffffff1673ffffffffffffffffffffffffffffffffffffffff163373ffffffffffffffffffffffffffffffffffffffff16146107dc576040517f08c379a00000000000000000000000000000000000000000000000000000000081526004016107d39061124e565b60405180910390fd5b6107e6828261088a565b6000808573ffffffffffffffffffffffffffffffffffffffff1673ffffffffffffffffffffffffffffffffffffffff1681526020019081526020016000206000820151816000019080519060200190610840929190610909565b50602082015181600101559050507f3c3284d117c92d0b1699230960384e794dcba184cc48ff114fe4fed20c9b05658360405161087d9190610bd7565b60405180910390a1505050565b6108926108af565b604051806040016040528084815260200183815250905092915050565b604051806040016040528060608152602001600081525090565b5080546108d590610ef9565b6000825580601f106108e75750610906565b601f016020900490600052602060002090810190610905919061098f565b5b50565b82805461091590610ef9565b90600052602060002090601f016020900481019282610937576000855561097e565b82601f1061095057805160ff191683800117855561097e565b8280016001018555821561097e579182015b8281111561097d578251825591602001919060010190610962565b5b50905061098b919061098f565b5090565b5b808211156109a8576000816000905550600101610990565b5090565b600081519050919050565b600082825260208201905092915050565b60005b838110156109e65780820151818401526020810190506109cb565b838111156109f5576000848401525b50505050565b6000601f19601f8301169050919050565b6000610a17826109ac565b610a2181856109b7565b9350610a318185602086016109c8565b610a3a816109fb565b840191505092915050565b60006020820190508181036000830152610a5f8184610a0c565b905092915050565b6000604051905090565b600080fd5b600080fd5b600073ffffffffffffffffffffffffffffffffffffffff82169050919050565b6000610aa682610a7b565b9050919050565b610ab681610a9b565b8114610ac157600080fd5b50565b600081359050610ad381610aad565b92915050565b600060208284031215610aef57610aee610a71565b5b6000610afd84828501610ac4565b91505092915050565b600082825260208201905092915050565b6000610b22826109ac565b610b2c8185610b06565b9350610b3c8185602086016109c8565b610b45816109fb565b840191505092915050565b6000819050919050565b610b6381610b50565b82525050565b60006040830160008301518482036000860152610b868282610b17565b9150506020830151610b9b6020860182610b5a565b508091505092915050565b60006020820190508181036000830152610bc08184610b69565b905092915050565b610bd181610a9b565b82525050565b6000602082019050610bec6000830184610bc8565b92915050565b60008115159050919050565b610c0781610bf2565b82525050565b6000602082019050610c226000830184610bfe565b92915050565b600080fd5b7f4e487b7100000000000000000000000000000000000000000000000000000000600052604160045260246000fd5b610c65826109fb565b810181811067ffffffffffffffff82111715610c8457610c83610c2d565b5b80604052505050565b6000610c97610a67565b9050610ca38282610c5c565b919050565b600080fd5b600080fd5b600080fd5b600067ffffffffffffffff821115610cd257610cd1610c2d565b5b610cdb826109fb565b9050602081019050919050565b82818337600083830152505050565b6000610d0a610d0584610cb7565b610c8d565b905082815260208101848484011115610d2657610d25610cb2565b5b610d31848285610ce8565b509392505050565b600082601f830112610d4e57610d4d610cad565b5b8135610d5e848260208601610cf7565b91505092915050565b610d7081610b50565b8114610d7b57600080fd5b50565b600081359050610d8d81610d67565b92915050565b600060408284031215610da957610da8610c28565b5b610db36040610c8d565b9050600082013567ffffffffffffffff811115610dd357610dd2610ca8565b5b610ddf84828501610d39565b6000830152506020610df384828501610d7e565b60208301525092915050565b60008060408385031215610e1657610e15610a71565b5b6000610e2485828601610ac4565b925050602083013567ffffffffffffffff811115610e4557610e44610a76565b5b610e5185828601610d93565b9150509250929050565b600080600060608486031215610e7457610e73610a71565b5b6000610e8286828701610ac4565b935050602084013567ffffffffffffffff811115610ea357610ea2610a76565b5b610eaf86828701610d39565b9250506040610ec086828701610d7e565b9150509250925092565b7f4e487b7100000000000000000000000000000000000000000000000000000000600052602260045260246000fd5b60006002820490506001821680610f1157607f821691505b602082108103610f2457610f23610eca565b5b50919050565b7f4f6e6c7920757365727320616e6420697373756572732068617665207269676860008201527f747320746f2064656c6574652074686569722064617461000000000000000000602082015250565b6000610f866037836109b7565b9150610f9182610f2a565b604082019050919050565b60006020820190508181036000830152610fb581610f79565b9050919050565b600081905092915050565b60008190508160005260206000209050919050565b60008154610fe981610ef9565b610ff38186610fbc565b9450600182166000811461100e576001811461101f57611052565b60ff19831686528186019350611052565b61102885610fc7565b60005b8381101561104a5781548189015260018201915060208101905061102b565b838801955050505b50505092915050565b60006110678284610fdc565b915081905092915050565b7f4f6e6c79206f70657261746f722063616e20757064617465206d656d6265722060008201527f6461746100000000000000000000000000000000000000000000000000000000602082015250565b60006110ce6024836109b7565b91506110d982611072565b604082019050919050565b600060208201905081810360008301526110fd816110c1565b9050919050565b7f4d656d62657220646f6573206e6f742065786973740000000000000000000000600082015250565b600061113a6015836109b7565b915061114582611104565b602082019050919050565b600060208201905081810360008301526111698161112d565b9050919050565b7f4d656d62657220616c7265616479206578697374730000000000000000000000600082015250565b60006111a66015836109b7565b91506111b182611170565b602082019050919050565b600060208201905081810360008301526111d581611199565b9050919050565b7f4f6e6c79206f70657261746f722063616e206d696e74206e6577206d656d626560008201527f7273000000000000000000000000000000000000000000000000000000000000602082015250565b60006112386022836109b7565b9150611243826111dc565b604082019050919050565b600060208201905081810360008301526112678161122b565b905091905056fea26469706673582212209856eac2b9a8557e19b67f2b6320b8fc8bc678ff684d58418a9417d6059f2a0c64736f6c634300080d0033",
  "immutableReferences": {},
  "source": "// SPDX-License-Identifier: MIT\r\npragma solidity ^0.8.13;\r\n\r\n/// @title A contract for organization to mint soul-bounded ceritfication tokens to its members\r\n/// @author PoJu Chen\r\ncontract MembershipToken {\r\n    struct MBT {\r\n        string identity;\r\n        uint256 timestamp;\r\n    }\r\n\r\n    mapping(address => MBT) private members;\r\n\r\n    string public name;\r\n    address public operator;\r\n    bytes32 private zeroHash =\r\n        0xc5d2460186f7233c927e7db2dcc703c0e500b653ca82273b7bfad8045d85a470;\r\n\r\n    event Mint(address _member);\r\n    event Burn(address _member);\r\n    event Update(address _member);\r\n\r\n    constructor(string memory _name) {\r\n        name = _name;\r\n        operator = msg.sender;\r\n    }\r\n\r\n    function _mint(string memory _identity, uint256 _timestamp)\r\n        private\r\n        pure\r\n        returns (MBT memory)\r\n    {\r\n        return MBT(_identity, _timestamp);\r\n    }\r\n\r\n    function mint(\r\n        address _member,\r\n        string memory _identity,\r\n        uint256 _timestamp\r\n    ) external {\r\n        require(\r\n            keccak256(bytes(members[_member].identity)) == zeroHash,\r\n            \"Member already exists\"\r\n        );\r\n        require(msg.sender == operator, \"Only operator can mint new members\");\r\n        members[_member] = _mint(_identity, _timestamp);\r\n        emit Mint(_member);\r\n    }\r\n\r\n    function burn(address _member) external {\r\n        require(\r\n            msg.sender == _member || msg.sender == operator,\r\n            \"Only users and issuers have rights to delete their data\"\r\n        );\r\n        delete members[_member];\r\n        emit Burn(_member);\r\n    }\r\n\r\n    function update(address _member, MBT memory _memberData) external {\r\n        require(msg.sender == operator, \"Only operator can update member data\");\r\n        require(\r\n            keccak256(bytes(members[_member].identity)) != zeroHash,\r\n            \"Member does not exist\"\r\n        );\r\n        members[_member] = _memberData;\r\n        emit Update(_member);\r\n    }\r\n\r\n    function isMember(address _member) external view returns (bool) {\r\n        if (keccak256(bytes(members[_member].identity)) == zeroHash) {\r\n            return false;\r\n        } else {\r\n            return true;\r\n        }\r\n    }\r\n\r\n    function getMember(address _member) external view returns (MBT memory) {\r\n        return members[_member];\r\n    }\r\n}\r\n",
  "sourcePath": "D:\\Solidity\\truffle-testnet\\contracts\\MembershipToken.sol",
  "compiler": {
    "name": "solc",
    "version": "0.8.13+commit.abaa5c0e.Emscripten.clang"
  },
  "schemaVersion": "3.4.10",
  "updatedAt": "2022-11-13T12:47:00.003Z",
  "networkType": "ethereum",
  "devdoc": {
    "author": "PoJu Chen",
    "kind": "dev",
    "methods": {},
    "title": "A contract for organization to mint soul-bounded ceritfication tokens to its members",
    "version": 1
  },
  "userdoc": {
    "kind": "user",
    "methods": {},
    "version": 1
  }
}