{
  "contractName": "RatingToken",
  "abi": [
    {
      "inputs": [
        {
          "internalType": "string",
          "name": "_name",
          "type": "string"
        },
        {
          "internalType": "address",
          "name": "_memberContractAddress",
          "type": "address"
        }
      ],
      "stateMutability": "nonpayable",
      "type": "constructor"
    },
    {
      "anonymous": false,
      "inputs": [
        {
          "indexed": false,
          "internalType": "address",
          "name": "_issuer",
          "type": "address"
        },
        {
          "indexed": false,
          "internalType": "address",
          "name": "_recipient",
          "type": "address"
        }
      ],
      "name": "Burn",
      "type": "event"
    },
    {
      "anonymous": false,
      "inputs": [
        {
          "indexed": false,
          "internalType": "address",
          "name": "_issuer",
          "type": "address"
        },
        {
          "indexed": false,
          "internalType": "address",
          "name": "_recipient",
          "type": "address"
        }
      ],
      "name": "Rate",
      "type": "event"
    },
    {
      "anonymous": false,
      "inputs": [
        {
          "indexed": false,
          "internalType": "address",
          "name": "_issuer",
          "type": "address"
        },
        {
          "indexed": false,
          "internalType": "address",
          "name": "_recipient",
          "type": "address"
        }
      ],
      "name": "Update",
      "type": "event"
    },
    {
      "inputs": [],
      "name": "memberContractAddress",
      "outputs": [
        {
          "internalType": "address",
          "name": "",
          "type": "address"
        }
      ],
      "stateMutability": "view",
      "type": "function",
      "constant": true
    },
    {
      "inputs": [],
      "name": "name",
      "outputs": [
        {
          "internalType": "string",
          "name": "",
          "type": "string"
        }
      ],
      "stateMutability": "view",
      "type": "function",
      "constant": true
    },
    {
      "inputs": [],
      "name": "operator",
      "outputs": [
        {
          "internalType": "address",
          "name": "",
          "type": "address"
        }
      ],
      "stateMutability": "view",
      "type": "function",
      "constant": true
    },
    {
      "inputs": [
        {
          "internalType": "address",
          "name": "_address",
          "type": "address"
        }
      ],
      "name": "setMemberContractAddress",
      "outputs": [],
      "stateMutability": "nonpayable",
      "type": "function"
    },
    {
      "inputs": [
        {
          "internalType": "address",
          "name": "_recipient",
          "type": "address"
        },
        {
          "internalType": "string",
          "name": "_comment",
          "type": "string"
        },
        {
          "internalType": "uint256",
          "name": "_score",
          "type": "uint256"
        },
        {
          "internalType": "uint256",
          "name": "_timestamp",
          "type": "uint256"
        }
      ],
      "name": "rate",
      "outputs": [],
      "stateMutability": "nonpayable",
      "type": "function"
    },
    {
      "inputs": [
        {
          "internalType": "address",
          "name": "_recipient",
          "type": "address"
        }
      ],
      "name": "burn",
      "outputs": [],
      "stateMutability": "nonpayable",
      "type": "function"
    },
    {
      "inputs": [
        {
          "internalType": "address",
          "name": "_recipient",
          "type": "address"
        }
      ],
      "name": "getRatings",
      "outputs": [
        {
          "components": [
            {
              "internalType": "address",
              "name": "issuer",
              "type": "address"
            },
            {
              "internalType": "address",
              "name": "recipient",
              "type": "address"
            },
            {
              "internalType": "string",
              "name": "comment",
              "type": "string"
            },
            {
              "internalType": "uint256",
              "name": "score",
              "type": "uint256"
            },
            {
              "internalType": "uint256",
              "name": "timestamp",
              "type": "uint256"
            }
          ],
          "internalType": "struct RatingToken.RT[]",
          "name": "",
          "type": "tuple[]"
        }
      ],
      "stateMutability": "view",
      "type": "function",
      "constant": true
    },
    {
      "inputs": [],
      "name": "myRatings",
      "outputs": [
        {
          "components": [
            {
              "internalType": "address",
              "name": "issuer",
              "type": "address"
            },
            {
              "internalType": "address",
              "name": "recipient",
              "type": "address"
            },
            {
              "internalType": "string",
              "name": "comment",
              "type": "string"
            },
            {
              "internalType": "uint256",
              "name": "score",
              "type": "uint256"
            },
            {
              "internalType": "uint256",
              "name": "timestamp",
              "type": "uint256"
            }
          ],
          "internalType": "struct RatingToken.RT[]",
          "name": "",
          "type": "tuple[]"
        }
      ],
      "stateMutability": "view",
      "type": "function",
      "constant": true
    }
  ],
  "bytecode": "0x60806040526000600660006101000a81548173ffffffffffffffffffffffffffffffffffffffff021916908373ffffffffffffffffffffffffffffffffffffffff1602179055507fc5d2460186f7233c927e7db2dcc703c0e500b653ca82273b7bfad8045d85a47060001b6007553480156200007a57600080fd5b5060405162002879380380620028798339818101604052810190620000a0919062000436565b8160039080519060200190620000b892919062000184565b5080600860006101000a81548173ffffffffffffffffffffffffffffffffffffffff021916908373ffffffffffffffffffffffffffffffffffffffff16021790555080600560006101000a81548173ffffffffffffffffffffffffffffffffffffffff021916908373ffffffffffffffffffffffffffffffffffffffff16021790555033600460006101000a81548173ffffffffffffffffffffffffffffffffffffffff021916908373ffffffffffffffffffffffffffffffffffffffff160217905550505062000500565b8280546200019290620004cb565b90600052602060002090601f016020900481019282620001b6576000855562000202565b82601f10620001d157805160ff191683800117855562000202565b8280016001018555821562000202579182015b8281111562000201578251825591602001919060010190620001e4565b5b50905062000211919062000215565b5090565b5b808211156200023057600081600090555060010162000216565b5090565b6000604051905090565b600080fd5b600080fd5b600080fd5b600080fd5b6000601f19601f8301169050919050565b7f4e487b7100000000000000000000000000000000000000000000000000000000600052604160045260246000fd5b6200029d8262000252565b810181811067ffffffffffffffff82111715620002bf57620002be62000263565b5b80604052505050565b6000620002d462000234565b9050620002e2828262000292565b919050565b600067ffffffffffffffff82111562000305576200030462000263565b5b620003108262000252565b9050602081019050919050565b60005b838110156200033d57808201518184015260208101905062000320565b838111156200034d576000848401525b50505050565b60006200036a6200036484620002e7565b620002c8565b9050828152602081018484840111156200038957620003886200024d565b5b620003968482856200031d565b509392505050565b600082601f830112620003b657620003b562000248565b5b8151620003c884826020860162000353565b91505092915050565b600073ffffffffffffffffffffffffffffffffffffffff82169050919050565b6000620003fe82620003d1565b9050919050565b6200041081620003f1565b81146200041c57600080fd5b50565b600081519050620004308162000405565b92915050565b6000806040838503121562000450576200044f6200023e565b5b600083015167ffffffffffffffff81111562000471576200047062000243565b5b6200047f858286016200039e565b925050602062000492858286016200041f565b9150509250929050565b7f4e487b7100000000000000000000000000000000000000000000000000000000600052602260045260246000fd5b60006002820490506001821680620004e457607f821691505b602082108103620004fa57620004f96200049c565b5b50919050565b61236980620005106000396000f3fe608060405234801561001057600080fd5b50600436106100885760003560e01c806389afcb441161005b57806389afcb4414610103578063a1c9995e1461011f578063aafde2ec1461013d578063d58b38da1461016d57610088565b806306fdde031461008d578063365e90fd146100ab578063570ca735146100c75780635ccf5311146100e5575b600080fd5b610095610189565b6040516100a29190611ba3565b60405180910390f35b6100c560048036038101906100c09190611c37565b610217565b005b6100cf61032c565b6040516100dc9190611c73565b60405180910390f35b6100ed610352565b6040516100fa9190611e38565b60405180910390f35b61011d60048036038101906101189190611c37565b61061b565b005b610127610702565b6040516101349190611c73565b60405180910390f35b61015760048036038101906101529190611c37565b610728565b6040516101649190611e38565b60405180910390f35b61018760048036038101906101829190611fbb565b6109f3565b005b600380546101969061206d565b80601f01602080910402602001604051908101604052809291908181526020018280546101c29061206d565b801561020f5780601f106101e45761010080835404028352916020019161020f565b820191906000526020600020905b8154815290600101906020018083116101f257829003601f168201915b505050505081565b600460009054906101000a900473ffffffffffffffffffffffffffffffffffffffff1673ffffffffffffffffffffffffffffffffffffffff163373ffffffffffffffffffffffffffffffffffffffff16146102a7576040517f08c379a000000000000000000000000000000000000000000000000000000000815260040161029e90612110565b60405180910390fd5b80600860006101000a81548173ffffffffffffffffffffffffffffffffffffffff021916908373ffffffffffffffffffffffffffffffffffffffff16021790555080600560006101000a81548173ffffffffffffffffffffffffffffffffffffffff021916908373ffffffffffffffffffffffffffffffffffffffff16021790555050565b600460009054906101000a900473ffffffffffffffffffffffffffffffffffffffff1681565b6060600860009054906101000a900473ffffffffffffffffffffffffffffffffffffffff1673ffffffffffffffffffffffffffffffffffffffff1663a230c524336040518263ffffffff1660e01b81526004016103af9190611c73565b602060405180830381865afa1580156103cc573d6000803e3d6000fd5b505050506040513d601f19601f820116820180604052508101906103f09190612168565b61042f576040517f08c379a0000000000000000000000000000000000000000000000000000000008152600401610426906121e1565b60405180910390fd5b600260003373ffffffffffffffffffffffffffffffffffffffff1673ffffffffffffffffffffffffffffffffffffffff168152602001908152602001600020805480602002602001604051908101604052809291908181526020016000905b8282101561061257838290600052602060002090600502016040518060a00160405290816000820160009054906101000a900473ffffffffffffffffffffffffffffffffffffffff1673ffffffffffffffffffffffffffffffffffffffff1673ffffffffffffffffffffffffffffffffffffffff1681526020016001820160009054906101000a900473ffffffffffffffffffffffffffffffffffffffff1673ffffffffffffffffffffffffffffffffffffffff1673ffffffffffffffffffffffffffffffffffffffff16815260200160028201805461056d9061206d565b80601f01602080910402602001604051908101604052809291908181526020018280546105999061206d565b80156105e65780601f106105bb576101008083540402835291602001916105e6565b820191906000526020600020905b8154815290600101906020018083116105c957829003601f168201915b50505050508152602001600382015481526020016004820154815250508152602001906001019061048e565b50505050905090565b600860009054906101000a900473ffffffffffffffffffffffffffffffffffffffff1673ffffffffffffffffffffffffffffffffffffffff1663a230c524336040518263ffffffff1660e01b81526004016106769190611c73565b602060405180830381865afa158015610693573d6000803e3d6000fd5b505050506040513d601f19601f820116820180604052508101906106b79190612168565b6106f6576040517f08c379a00000000000000000000000000000000000000000000000000000000081526004016106ed906121e1565b60405180910390fd5b6106ff81610fae565b50565b600560009054906101000a900473ffffffffffffffffffffffffffffffffffffffff1681565b6060600860009054906101000a900473ffffffffffffffffffffffffffffffffffffffff1673ffffffffffffffffffffffffffffffffffffffff1663a230c524336040518263ffffffff1660e01b81526004016107859190611c73565b602060405180830381865afa1580156107a2573d6000803e3d6000fd5b505050506040513d601f19601f820116820180604052508101906107c69190612168565b610805576040517f08c379a00000000000000000000000000000000000000000000000000000000081526004016107fc906121e1565b60405180910390fd5b600160008373ffffffffffffffffffffffffffffffffffffffff1673ffffffffffffffffffffffffffffffffffffffff168152602001908152602001600020805480602002602001604051908101604052809291908181526020016000905b828210156109e857838290600052602060002090600502016040518060a00160405290816000820160009054906101000a900473ffffffffffffffffffffffffffffffffffffffff1673ffffffffffffffffffffffffffffffffffffffff1673ffffffffffffffffffffffffffffffffffffffff1681526020016001820160009054906101000a900473ffffffffffffffffffffffffffffffffffffffff1673ffffffffffffffffffffffffffffffffffffffff1673ffffffffffffffffffffffffffffffffffffffff1681526020016002820180546109439061206d565b80601f016020809104026020016040519081016040528092919081815260200182805461096f9061206d565b80156109bc5780601f10610991576101008083540402835291602001916109bc565b820191906000526020600020905b81548152906001019060200180831161099f57829003601f168201915b505050505081526020016003820154815260200160048201548152505081526020019060010190610864565b505050509050919050565b600860009054906101000a900473ffffffffffffffffffffffffffffffffffffffff1673ffffffffffffffffffffffffffffffffffffffff1663a230c524336040518263ffffffff1660e01b8152600401610a4e9190611c73565b602060405180830381865afa158015610a6b573d6000803e3d6000fd5b505050506040513d601f19601f82011682018060405250810190610a8f9190612168565b610ace576040517f08c379a0000000000000000000000000000000000000000000000000000000008152600401610ac5906121e1565b60405180910390fd5b600660009054906101000a900473ffffffffffffffffffffffffffffffffffffffff1673ffffffffffffffffffffffffffffffffffffffff166000808673ffffffffffffffffffffffffffffffffffffffff1673ffffffffffffffffffffffffffffffffffffffff16815260200190815260200160002060003373ffffffffffffffffffffffffffffffffffffffff1673ffffffffffffffffffffffffffffffffffffffff16815260200190815260200160002060000160009054906101000a900473ffffffffffffffffffffffffffffffffffffffff1673ffffffffffffffffffffffffffffffffffffffff1614610bcb57610bca84610fae565b5b6000610bda33868686866118d9565b9050806000808773ffffffffffffffffffffffffffffffffffffffff1673ffffffffffffffffffffffffffffffffffffffff16815260200190815260200160002060003373ffffffffffffffffffffffffffffffffffffffff1673ffffffffffffffffffffffffffffffffffffffff16815260200190815260200160002060008201518160000160006101000a81548173ffffffffffffffffffffffffffffffffffffffff021916908373ffffffffffffffffffffffffffffffffffffffff16021790555060208201518160010160006101000a81548173ffffffffffffffffffffffffffffffffffffffff021916908373ffffffffffffffffffffffffffffffffffffffff1602179055506040820151816002019080519060200190610d0292919061193f565b506060820151816003015560808201518160040155905050600160008673ffffffffffffffffffffffffffffffffffffffff1673ffffffffffffffffffffffffffffffffffffffff16815260200190815260200160002081908060018154018082558091505060019003906000526020600020906005020160009091909190915060008201518160000160006101000a81548173ffffffffffffffffffffffffffffffffffffffff021916908373ffffffffffffffffffffffffffffffffffffffff16021790555060208201518160010160006101000a81548173ffffffffffffffffffffffffffffffffffffffff021916908373ffffffffffffffffffffffffffffffffffffffff1602179055506040820151816002019080519060200190610e2d92919061193f565b5060608201518160030155608082015181600401555050600260003373ffffffffffffffffffffffffffffffffffffffff1673ffffffffffffffffffffffffffffffffffffffff16815260200190815260200160002081908060018154018082558091505060019003906000526020600020906005020160009091909190915060008201518160000160006101000a81548173ffffffffffffffffffffffffffffffffffffffff021916908373ffffffffffffffffffffffffffffffffffffffff16021790555060208201518160010160006101000a81548173ffffffffffffffffffffffffffffffffffffffff021916908373ffffffffffffffffffffffffffffffffffffffff1602179055506040820151816002019080519060200190610f5792919061193f565b50606082015181600301556080820151816004015550507f525e0fb848847f83af7749cc86a354146c579dd6cea3a18604175db2320f20263386604051610f9f929190612201565b60405180910390a15050505050565b6000808273ffffffffffffffffffffffffffffffffffffffff1673ffffffffffffffffffffffffffffffffffffffff16815260200190815260200160002060003373ffffffffffffffffffffffffffffffffffffffff1673ffffffffffffffffffffffffffffffffffffffff168152602001908152602001600020600080820160006101000a81549073ffffffffffffffffffffffffffffffffffffffff02191690556001820160006101000a81549073ffffffffffffffffffffffffffffffffffffffff021916905560028201600061108891906119c5565b60038201600090556004820160009055505060005b600160008373ffffffffffffffffffffffffffffffffffffffff1673ffffffffffffffffffffffffffffffffffffffff1681526020019081526020016000208054905081101561149a573373ffffffffffffffffffffffffffffffffffffffff16600160008473ffffffffffffffffffffffffffffffffffffffff1673ffffffffffffffffffffffffffffffffffffffff168152602001908152602001600020828154811061114f5761114e61222a565b5b906000526020600020906005020160000160009054906101000a900473ffffffffffffffffffffffffffffffffffffffff1673ffffffffffffffffffffffffffffffffffffffff160361148757600160008373ffffffffffffffffffffffffffffffffffffffff1673ffffffffffffffffffffffffffffffffffffffff16815260200190815260200160002060018060008573ffffffffffffffffffffffffffffffffffffffff1673ffffffffffffffffffffffffffffffffffffffff168152602001908152602001600020805490506112299190612288565b8154811061123a5761123961222a565b5b9060005260206000209060050201600160008473ffffffffffffffffffffffffffffffffffffffff1673ffffffffffffffffffffffffffffffffffffffff16815260200190815260200160002082815481106112995761129861222a565b5b90600052602060002090600502016000820160009054906101000a900473ffffffffffffffffffffffffffffffffffffffff168160000160006101000a81548173ffffffffffffffffffffffffffffffffffffffff021916908373ffffffffffffffffffffffffffffffffffffffff1602179055506001820160009054906101000a900473ffffffffffffffffffffffffffffffffffffffff168160010160006101000a81548173ffffffffffffffffffffffffffffffffffffffff021916908373ffffffffffffffffffffffffffffffffffffffff16021790555060028201816002019080546113899061206d565b611394929190611a05565b506003820154816003015560048201548160040155905050600160008373ffffffffffffffffffffffffffffffffffffffff1673ffffffffffffffffffffffffffffffffffffffff1681526020019081526020016000208054806113fb576113fa6122bc565b5b6001900381819060005260206000209060050201600080820160006101000a81549073ffffffffffffffffffffffffffffffffffffffff02191690556001820160006101000a81549073ffffffffffffffffffffffffffffffffffffffff021916905560028201600061146e91906119c5565b600382016000905560048201600090555050905561149a565b8080611492906122eb565b91505061109d565b5060005b600260003373ffffffffffffffffffffffffffffffffffffffff1673ffffffffffffffffffffffffffffffffffffffff1681526020019081526020016000208054905081101561189c578173ffffffffffffffffffffffffffffffffffffffff16600260003373ffffffffffffffffffffffffffffffffffffffff1673ffffffffffffffffffffffffffffffffffffffff16815260200190815260200160002082815481106115505761154f61222a565b5b906000526020600020906005020160010160009054906101000a900473ffffffffffffffffffffffffffffffffffffffff1673ffffffffffffffffffffffffffffffffffffffff160361188957600260003373ffffffffffffffffffffffffffffffffffffffff1673ffffffffffffffffffffffffffffffffffffffff1681526020019081526020016000206001600260003373ffffffffffffffffffffffffffffffffffffffff1673ffffffffffffffffffffffffffffffffffffffff1681526020019081526020016000208054905061162b9190612288565b8154811061163c5761163b61222a565b5b9060005260206000209060050201600260003373ffffffffffffffffffffffffffffffffffffffff1673ffffffffffffffffffffffffffffffffffffffff168152602001908152602001600020828154811061169b5761169a61222a565b5b90600052602060002090600502016000820160009054906101000a900473ffffffffffffffffffffffffffffffffffffffff168160000160006101000a81548173ffffffffffffffffffffffffffffffffffffffff021916908373ffffffffffffffffffffffffffffffffffffffff1602179055506001820160009054906101000a900473ffffffffffffffffffffffffffffffffffffffff168160010160006101000a81548173ffffffffffffffffffffffffffffffffffffffff021916908373ffffffffffffffffffffffffffffffffffffffff160217905550600282018160020190805461178b9061206d565b611796929190611a05565b506003820154816003015560048201548160040155905050600260003373ffffffffffffffffffffffffffffffffffffffff1673ffffffffffffffffffffffffffffffffffffffff1681526020019081526020016000208054806117fd576117fc6122bc565b5b6001900381819060005260206000209060050201600080820160006101000a81549073ffffffffffffffffffffffffffffffffffffffff02191690556001820160006101000a81549073ffffffffffffffffffffffffffffffffffffffff021916905560028201600061187091906119c5565b600382016000905560048201600090555050905561189c565b8080611894906122eb565b91505061149e565b507f4d0027a9041907e192071c137c856e360354ad357b52ca464608ed2c13d8f99733826040516118ce929190612201565b60405180910390a150565b6118e1611a92565b6040518060a001604052808773ffffffffffffffffffffffffffffffffffffffff1681526020018673ffffffffffffffffffffffffffffffffffffffff16815260200185815260200184815260200183815250905095945050505050565b82805461194b9061206d565b90600052602060002090601f01602090048101928261196d57600085556119b4565b82601f1061198657805160ff19168380011785556119b4565b828001600101855582156119b4579182015b828111156119b3578251825591602001919060010190611998565b5b5090506119c19190611aed565b5090565b5080546119d19061206d565b6000825580601f106119e35750611a02565b601f016020900490600052602060002090810190611a019190611aed565b5b50565b828054611a119061206d565b90600052602060002090601f016020900481019282611a335760008555611a81565b82601f10611a445780548555611a81565b82800160010185558215611a8157600052602060002091601f016020900482015b82811115611a80578254825591600101919060010190611a65565b5b509050611a8e9190611aed565b5090565b6040518060a00160405280600073ffffffffffffffffffffffffffffffffffffffff168152602001600073ffffffffffffffffffffffffffffffffffffffff1681526020016060815260200160008152602001600081525090565b5b80821115611b06576000816000905550600101611aee565b5090565b600081519050919050565b600082825260208201905092915050565b60005b83811015611b44578082015181840152602081019050611b29565b83811115611b53576000848401525b50505050565b6000601f19601f8301169050919050565b6000611b7582611b0a565b611b7f8185611b15565b9350611b8f818560208601611b26565b611b9881611b59565b840191505092915050565b60006020820190508181036000830152611bbd8184611b6a565b905092915050565b6000604051905090565b600080fd5b600080fd5b600073ffffffffffffffffffffffffffffffffffffffff82169050919050565b6000611c0482611bd9565b9050919050565b611c1481611bf9565b8114611c1f57600080fd5b50565b600081359050611c3181611c0b565b92915050565b600060208284031215611c4d57611c4c611bcf565b5b6000611c5b84828501611c22565b91505092915050565b611c6d81611bf9565b82525050565b6000602082019050611c886000830184611c64565b92915050565b600081519050919050565b600082825260208201905092915050565b6000819050602082019050919050565b611cc381611bf9565b82525050565b600082825260208201905092915050565b6000611ce582611b0a565b611cef8185611cc9565b9350611cff818560208601611b26565b611d0881611b59565b840191505092915050565b6000819050919050565b611d2681611d13565b82525050565b600060a083016000830151611d446000860182611cba565b506020830151611d576020860182611cba565b5060408301518482036040860152611d6f8282611cda565b9150506060830151611d846060860182611d1d565b506080830151611d976080860182611d1d565b508091505092915050565b6000611dae8383611d2c565b905092915050565b6000602082019050919050565b6000611dce82611c8e565b611dd88185611c99565b935083602082028501611dea85611caa565b8060005b85811015611e265784840389528151611e078582611da2565b9450611e1283611db6565b925060208a01995050600181019050611dee565b50829750879550505050505092915050565b60006020820190508181036000830152611e528184611dc3565b905092915050565b600080fd5b600080fd5b7f4e487b7100000000000000000000000000000000000000000000000000000000600052604160045260246000fd5b611e9c82611b59565b810181811067ffffffffffffffff82111715611ebb57611eba611e64565b5b80604052505050565b6000611ece611bc5565b9050611eda8282611e93565b919050565b600067ffffffffffffffff821115611efa57611ef9611e64565b5b611f0382611b59565b9050602081019050919050565b82818337600083830152505050565b6000611f32611f2d84611edf565b611ec4565b905082815260208101848484011115611f4e57611f4d611e5f565b5b611f59848285611f10565b509392505050565b600082601f830112611f7657611f75611e5a565b5b8135611f86848260208601611f1f565b91505092915050565b611f9881611d13565b8114611fa357600080fd5b50565b600081359050611fb581611f8f565b92915050565b60008060008060808587031215611fd557611fd4611bcf565b5b6000611fe387828801611c22565b945050602085013567ffffffffffffffff81111561200457612003611bd4565b5b61201087828801611f61565b935050604061202187828801611fa6565b925050606061203287828801611fa6565b91505092959194509250565b7f4e487b7100000000000000000000000000000000000000000000000000000000600052602260045260246000fd5b6000600282049050600182168061208557607f821691505b6020821081036120985761209761203e565b5b50919050565b7f4f6e6c79206f70657261746f722063616e2073657420746865206d656d62657260008201527f20636f6e74726163742061646472657373000000000000000000000000000000602082015250565b60006120fa603183611b15565b91506121058261209e565b604082019050919050565b60006020820190508181036000830152612129816120ed565b9050919050565b60008115159050919050565b61214581612130565b811461215057600080fd5b50565b6000815190506121628161213c565b92915050565b60006020828403121561217e5761217d611bcf565b5b600061218c84828501612153565b91505092915050565b7f596f7520617265206e6f742061206d656d626572000000000000000000000000600082015250565b60006121cb601483611b15565b91506121d682612195565b602082019050919050565b600060208201905081810360008301526121fa816121be565b9050919050565b60006040820190506122166000830185611c64565b6122236020830184611c64565b9392505050565b7f4e487b7100000000000000000000000000000000000000000000000000000000600052603260045260246000fd5b7f4e487b7100000000000000000000000000000000000000000000000000000000600052601160045260246000fd5b600061229382611d13565b915061229e83611d13565b9250828210156122b1576122b0612259565b5b828203905092915050565b7f4e487b7100000000000000000000000000000000000000000000000000000000600052603160045260246000fd5b60006122f682611d13565b91507fffffffffffffffffffffffffffffffffffffffffffffffffffffffffffffffff820361232857612327612259565b5b60018201905091905056fea2646970667358221220010a8c94baf11f735d44f1cf1c8578dc987d428cb84d9d0a9ed17529d773c20464736f6c634300080d0033",
  "immutableReferences": {},
  "source": "// SPDX-License-Identifier: MIT\r\npragma solidity ^0.8.13;\r\n\r\ninterface MemberInterface {\r\n    function isMember(address _member) external view returns (bool);\r\n}\r\n\r\n/// @title A contract for authorized members to rate recipients\r\n/// @author PoJu Chen\r\ncontract RatingToken {\r\n    struct RT {\r\n        address issuer;\r\n        address recipient;\r\n        string comment;\r\n        uint256 score;\r\n        uint256 timestamp;\r\n    }\r\n\r\n    mapping(address => mapping(address => RT)) private recipients;\r\n    mapping(address => RT[]) private recipientToIssuers;\r\n    mapping(address => RT[]) private issuerToRecipients;\r\n\r\n    string public name;\r\n    address public operator;\r\n    address public memberContractAddress;\r\n    address private nullAddress = 0x0000000000000000000000000000000000000000;\r\n    bytes32 private zeroHash =\r\n        0xc5d2460186f7233c927e7db2dcc703c0e500b653ca82273b7bfad8045d85a470;\r\n\r\n    event Rate(address _issuer, address _recipient);\r\n    event Burn(address _issuer, address _recipient);\r\n    event Update(address _issuer, address _recipient);\r\n\r\n    MemberInterface memberContract;\r\n\r\n    constructor(string memory _name, address _memberContractAddress) {\r\n        name = _name;\r\n        memberContract = MemberInterface(_memberContractAddress);\r\n        memberContractAddress = _memberContractAddress;\r\n        operator = msg.sender;\r\n    }\r\n\r\n    modifier onlyMember() {\r\n        require(memberContract.isMember(msg.sender), \"You are not a member\");\r\n        _;\r\n    }\r\n\r\n    function setMemberContractAddress(address _address) external {\r\n        require(\r\n            msg.sender == operator,\r\n            \"Only operator can set the member contract address\"\r\n        );\r\n        memberContract = MemberInterface(_address);\r\n        memberContractAddress = _address;\r\n    }\r\n\r\n    function _mintRT(\r\n        address _issuer,\r\n        address _recipient,\r\n        string memory _comment,\r\n        uint256 _score,\r\n        uint256 _timestamp\r\n    ) private pure returns (RT memory) {\r\n        return RT(_issuer, _recipient, _comment, _score, _timestamp);\r\n    }\r\n\r\n    function rate(\r\n        address _recipient,\r\n        string memory _comment,\r\n        uint256 _score,\r\n        uint256 _timestamp\r\n    ) external onlyMember {\r\n        // If token already exists, burn the original token and update a new one\r\n        if (recipients[_recipient][msg.sender].issuer != nullAddress) {\r\n            _burn(_recipient);\r\n        }\r\n        RT memory newToekn = _mintRT(\r\n            msg.sender,\r\n            _recipient,\r\n            _comment,\r\n            _score,\r\n            _timestamp\r\n        );\r\n        recipients[_recipient][msg.sender] = newToekn;\r\n        recipientToIssuers[_recipient].push(newToekn);\r\n        issuerToRecipients[msg.sender].push(newToekn);\r\n        emit Rate(msg.sender, _recipient);\r\n    }\r\n\r\n    function _burn(address _recipient) private {\r\n        delete recipients[_recipient][msg.sender];\r\n        for (uint256 i = 0; i < recipientToIssuers[_recipient].length; i++) {\r\n            if (recipientToIssuers[_recipient][i].issuer == msg.sender) {\r\n                // Move the last element into the place to delete\r\n                recipientToIssuers[_recipient][i] = recipientToIssuers[\r\n                    _recipient\r\n                ][recipientToIssuers[_recipient].length - 1];\r\n                // Remove the last element\r\n                recipientToIssuers[_recipient].pop();\r\n                break;\r\n            }\r\n        }\r\n        for (uint256 i = 0; i < issuerToRecipients[msg.sender].length; i++) {\r\n            if (issuerToRecipients[msg.sender][i].recipient == _recipient) {\r\n                issuerToRecipients[msg.sender][i] = issuerToRecipients[\r\n                    msg.sender\r\n                ][issuerToRecipients[msg.sender].length - 1];\r\n                issuerToRecipients[msg.sender].pop();\r\n                break;\r\n            }\r\n        }\r\n        emit Burn(msg.sender, _recipient);\r\n    }\r\n\r\n    function burn(address _recipient) external onlyMember {\r\n        _burn(_recipient);\r\n    }\r\n\r\n    function getRatings(address _recipient)\r\n        external\r\n        view\r\n        onlyMember\r\n        returns (RT[] memory)\r\n    {\r\n        return recipientToIssuers[_recipient];\r\n    }\r\n\r\n    function myRatings() external view onlyMember returns (RT[] memory) {\r\n        return issuerToRecipients[msg.sender];\r\n    }\r\n}\r\n",
  "sourcePath": "D:\\Solidity\\truffle-testnet\\contracts\\RatingToken.sol",
  "compiler": {
    "name": "solc",
    "version": "0.8.13+commit.abaa5c0e.Emscripten.clang"
  },
  "schemaVersion": "3.4.10",
  "updatedAt": "2022-11-13T12:47:00.016Z",
  "networkType": "ethereum",
  "devdoc": {
    "author": "PoJu Chen",
    "kind": "dev",
    "methods": {},
    "title": "A contract for authorized members to rate recipients",
    "version": 1
  },
  "userdoc": {
    "kind": "user",
    "methods": {},
    "version": 1
  }
}